{
  "contractName": "tweets",
  "abi": [
    {
      "inputs": [],
      "stateMutability": "nonpayable",
      "type": "constructor"
    },
    {
      "anonymous": false,
      "inputs": [
        {
          "indexed": false,
          "internalType": "address",
          "name": "tweeter",
          "type": "address"
        },
        {
          "indexed": false,
          "internalType": "uint256",
          "name": "id",
          "type": "uint256"
        },
        {
          "indexed": false,
          "internalType": "string",
          "name": "tweetTxt",
          "type": "string"
        },
        {
          "indexed": false,
          "internalType": "string",
          "name": "tweetImg",
          "type": "string"
        }
      ],
      "name": "tweetCreated",
      "type": "event"
    },
    {
      "inputs": [],
      "name": "owner",
      "outputs": [
        {
          "internalType": "address",
          "name": "",
          "type": "address"
        }
      ],
      "stateMutability": "view",
      "type": "function"
    },
    {
      "inputs": [
        {
          "internalType": "string",
          "name": "tweetTxt",
          "type": "string"
        },
        {
          "internalType": "string",
          "name": "tweetImg",
          "type": "string"
        }
      ],
      "name": "addTweet",
      "outputs": [],
      "stateMutability": "nonpayable",
      "type": "function"
    },
    {
      "inputs": [
        {
          "internalType": "uint256",
          "name": "id",
          "type": "uint256"
        }
      ],
      "name": "getTweet",
      "outputs": [
        {
          "internalType": "string",
          "name": "",
          "type": "string"
        },
        {
          "internalType": "string",
          "name": "",
          "type": "string"
        },
        {
          "internalType": "address",
          "name": "",
          "type": "address"
        }
      ],
      "stateMutability": "view",
      "type": "function"
    }
  ],
  "bytecode": "0x608060405234801561001057600080fd5b506000600181905550336000806101000a81548173ffffffffffffffffffffffffffffffffffffffff021916908373ffffffffffffffffffffffffffffffffffffffff16021790555061095a806100686000396000f3fe608060405234801561001057600080fd5b50600436106100415760003560e01c80637e75b408146100465780638da5cb5b14610062578063c3ad5ecb14610080575b600080fd5b610060600480360381019061005b919061057b565b6100b2565b005b61006a6101a7565b6040516100779190610634565b60405180910390f35b61009a60048036038101906100959190610685565b6101cb565b6040516100a99392919061073a565b60405180910390f35b60006002600060015481526020019081526020016000209050828160020190805190602001906100e392919061037e565b50818160030190805190602001906100fc92919061037e565b50338160000160006101000a81548173ffffffffffffffffffffffffffffffffffffffff021916908373ffffffffffffffffffffffffffffffffffffffff16021790555060015481600101819055507f7833935c4a0db647706761b6cf59177b216d1d35e41408f8f7d54ce993064a35336001548585604051610182949392919061078e565b60405180910390a16001600081548092919061019d90610810565b9190505550505050565b60008054906101000a900473ffffffffffffffffffffffffffffffffffffffff1681565b60608060006001548410610214576040517f08c379a000000000000000000000000000000000000000000000000000000000815260040161020b906108a4565b60405180910390fd5b600060026000868152602001908152602001600020905080600201816003018260000160009054906101000a900473ffffffffffffffffffffffffffffffffffffffff16828054610264906108f3565b80601f0160208091040260200160405190810160405280929190818152602001828054610290906108f3565b80156102dd5780601f106102b2576101008083540402835291602001916102dd565b820191906000526020600020905b8154815290600101906020018083116102c057829003601f168201915b505050505092508180546102f0906108f3565b80601f016020809104026020016040519081016040528092919081815260200182805461031c906108f3565b80156103695780601f1061033e57610100808354040283529160200191610369565b820191906000526020600020905b81548152906001019060200180831161034c57829003601f168201915b50505050509150935093509350509193909250565b82805461038a906108f3565b90600052602060002090601f0160209004810192826103ac57600085556103f3565b82601f106103c557805160ff19168380011785556103f3565b828001600101855582156103f3579182015b828111156103f25782518255916020019190600101906103d7565b5b5090506104009190610404565b5090565b5b8082111561041d576000816000905550600101610405565b5090565b6000604051905090565b600080fd5b600080fd5b600080fd5b600080fd5b6000601f19601f8301169050919050565b7f4e487b7100000000000000000000000000000000000000000000000000000000600052604160045260246000fd5b6104888261043f565b810181811067ffffffffffffffff821117156104a7576104a6610450565b5b80604052505050565b60006104ba610421565b90506104c6828261047f565b919050565b600067ffffffffffffffff8211156104e6576104e5610450565b5b6104ef8261043f565b9050602081019050919050565b82818337600083830152505050565b600061051e610519846104cb565b6104b0565b90508281526020810184848401111561053a5761053961043a565b5b6105458482856104fc565b509392505050565b600082601f83011261056257610561610435565b5b813561057284826020860161050b565b91505092915050565b600080604083850312156105925761059161042b565b5b600083013567ffffffffffffffff8111156105b0576105af610430565b5b6105bc8582860161054d565b925050602083013567ffffffffffffffff8111156105dd576105dc610430565b5b6105e98582860161054d565b9150509250929050565b600073ffffffffffffffffffffffffffffffffffffffff82169050919050565b600061061e826105f3565b9050919050565b61062e81610613565b82525050565b60006020820190506106496000830184610625565b92915050565b6000819050919050565b6106628161064f565b811461066d57600080fd5b50565b60008135905061067f81610659565b92915050565b60006020828403121561069b5761069a61042b565b5b60006106a984828501610670565b91505092915050565b600081519050919050565b600082825260208201905092915050565b60005b838110156106ec5780820151818401526020810190506106d1565b838111156106fb576000848401525b50505050565b600061070c826106b2565b61071681856106bd565b93506107268185602086016106ce565b61072f8161043f565b840191505092915050565b600060608201905081810360008301526107548186610701565b905081810360208301526107688185610701565b90506107776040830184610625565b949350505050565b6107888161064f565b82525050565b60006080820190506107a36000830187610625565b6107b0602083018661077f565b81810360408301526107c28185610701565b905081810360608301526107d68184610701565b905095945050505050565b7f4e487b7100000000000000000000000000000000000000000000000000000000600052601160045260246000fd5b600061081b8261064f565b91507fffffffffffffffffffffffffffffffffffffffffffffffffffffffffffffffff820361084d5761084c6107e1565b5b600182019050919050565b7f4e6f207375636820547765657400000000000000000000000000000000000000600082015250565b600061088e600d836106bd565b915061089982610858565b602082019050919050565b600060208201905081810360008301526108bd81610881565b9050919050565b7f4e487b7100000000000000000000000000000000000000000000000000000000600052602260045260246000fd5b6000600282049050600182168061090b57607f821691505b60208210810361091e5761091d6108c4565b5b5091905056fea26469706673582212207bd499d3d2c22ac94574f162dbcdad51dbc43c40e227b27e16f0d67302d5e89d64736f6c634300080e0033",
  "immutableReferences": {},
  "source": "// SPDX-License-Identifier: MIT\r\n\r\npragma solidity ^0.8.7;\r\n\r\ncontract tweets {\r\n\r\n    address public owner;\r\n    uint256 private counter;\r\n\r\n    constructor() {\r\n        counter = 0;\r\n        owner = msg.sender;\r\n     }\r\n\r\n    struct tweet {\r\n        address tweeter;\r\n        uint256 id;\r\n        string tweetTxt;\r\n        string tweetImg;\r\n    }\r\n\r\n    event tweetCreated (\r\n        address tweeter,\r\n        uint256 id,\r\n        string tweetTxt,\r\n        string tweetImg\r\n    );\r\n\r\n    mapping(uint256 => tweet) Tweets;\r\n\r\n    function addTweet(\r\n        string memory tweetTxt,\r\n        string memory tweetImg\r\n        ) public {\r\n            tweet storage newTweet = Tweets[counter];\r\n            newTweet.tweetTxt = tweetTxt;\r\n            newTweet.tweetImg = tweetImg;\r\n            newTweet.tweeter = msg.sender;\r\n            newTweet.id = counter;\r\n            emit tweetCreated(\r\n                msg.sender, \r\n                counter, \r\n                tweetTxt, \r\n                tweetImg\r\n            );\r\n            counter++;\r\n    }\r\n\r\n    function getTweet(uint256 id) public view returns (string memory, string memory, address){\r\n        require(id < counter, \"No such Tweet\");\r\n\r\n        tweet storage t = Tweets[id];\r\n        return (t.tweetTxt, t.tweetImg, t.tweeter);\r\n    }\r\n}",
  "sourcePath": "E:\\Study\\web\\Twitter-Start\\contracts\\tweets.sol",
  "compiler": {
    "name": "solc",
    "version": "0.8.14+commit.80d49f37.Emscripten.clang"
  },
  "schemaVersion": "3.4.7",
  "updatedAt": "2022-06-03T00:06:54.205Z",
  "devdoc": {
    "kind": "dev",
    "methods": {},
    "version": 1
  },
  "userdoc": {
    "kind": "user",
    "methods": {},
    "version": 1
  }
}